:020000040800F2
:1000000000000220919505087D970008FD4D02082B
:100010004196050841960508419605080000000034
:1000200000000000000000000000000081B0000897
:1000300083B000080000000085B00008A90A01088C
:100040004196050841960508419605084196050820
:100050004196050841960508A3F10008A7F100089C
:1000600041960508ABF10008AFF1000841A0000877
:1000700055A0000869A000087DA0000891A0000814
:10008000A5A00008B9A000084196050800000000DE
:10009000000000000000000000000000B3F10008B4
:1000A000799F0008A19F0008C99F0008639F00086E
:1000B000F19F000805A0000819A000084196050856
:1000C00041960508419605084196050841960508A0
:1000D00041960508059A0008119A000800000000E2
:1000E000B7F100084196050887B00008000000003D
:1000F000000000000000000000000000CDA000088B
:1001000000000000419605082DA000084196050852
:1001100000000000000000000000000000000000DF
:10012000E1A00008F5A0000809A100081DA1000831
:1001300031A10008000000000000000000000000E5
:10014000000000000000000000000000D9B000081E
:1001500045A1000859A100086DA1000841960508B5
:1001600041960508419605080000000000000000C7
:10017000000000000000000000000000000000007F
:10018000000000004196050800000000000000008B
:0801900041960508419605089F
:080198002491050001000000A4
:1001A00008570120010200000100680028570120C3
:1001B000010D00000000760048570120011C0000DE
:1001C00000002C0068570120012D000000002900CC
:1001D00088570120012E010000002900A8570120A6
:1001E000012F010000007000C857012001300100FC
:1001F00000005200E85701200236040000001400FD
:10020000085801200135000000003C00285801205A
:0802100001380000000020008D
:10800000D0E907239A422FBFD01AC0688018C01A3F
:108010007047D0E9092300699A4238BF1218D31A71
:108020000138C01A7047D0E90902131A5842584162
:108030007047036A41690246C85CD16801338B42CC
:1080400028BF002313627047436A8269D154436A90
:1080500002690133934228BF0023426B4362D36815
:1080600043F08003D3607047436B188810F0100012
:108070001EBF1A889B8801207047436B99891A8814
:10808000890610B592B2044607D5900605D5E26A76
:1080900022B39888216B80B29047636B99891A88C4
:1080A000090692B20FD510060DD5D4E909128A42FD
:1080B00022D0A169895C998021690132B2FBF1F07B
:1080C00001FB1022A262998A1A88C90592B204D5CE
:1080D000D20744BF4FF6F7721A8010BD9B88E26941
:1080E0006169DBB28B54E369E2680133B3FBF2F1FF
:1080F00002FB1133E361D0E7DA6822F08002DA6034
:10810000E1E7036941681F2B30B54FF0200285BFBE
:10811000A3F120054C680C68AA4098BF9A402242FF
:108120001ED0826900201074D0688468206820F016
:10813000010020605468206865790A4C828934F80F
:10814000154092B21F2B22EA0402828188BF203B95
:108150004FF020028BBF9A4002FA03F3CA608B6093
:1081600030BD00BFACFF05080E4BDA68D20310D457
:10817000DA68D1060FD4DA68D2050ED4DA6812F0C4
:10818000E00F0CD1DB6813F0020F14BF08200920A8
:108190007047012070470620704702207047072073
:1081A000704700BF003C024007B509238DF8073037
:1081B000FFF7DAFF8DF807009DF80730012BF7D0A5
:1081C0009DF8070003B05DF804FB838A028B9BB225
:1081D00043EA024331EA03030CBF01200020704749
:1081E00082B0002301930093012300900193019B2F
:1081F00063B1009A21F07F4314320092009A126812
:108200001A4214BF0120002002B07047009A1832B1
:10821000F3E77047704701207047034BD3E9000331
:10822000C01AC0F30A00704700200020054AD2E9B6
:1082300000138B42FDD0D1180133C3F30A03087A2F
:108240005360704700200020044BD3F8080820B189
:10825000D3F80808431F58425841704700200020B7
:10826000012380F849307047044BD3E90003C01A5A
:10827000C0F30A00C0F50060704700BF0020002076
:1082800010B5D0F8E83504461B699847032384F8F5
:108290001231002010BD08B590F8123180F813316A
:1082A000042380F81231D0F8E835DB6898470020C5
:1082B00008BD08B5D0F8E435DB6903B19847002064
:1082C00008BD08B5D0F8E4351B6A9847002008BD02
:1082D00008B5D0F8E4355B6A9847002008BD30B592
:1082E0000138002423460134055D002DFAD1DBB2AC
:1082F00001335B0013800B7003234B70022310F8D3
:10830000014F04B930BD5A1CD2B2CC5402338D5443
:10831000DBB2F4E710B5074C2068FF2808D0064907
:10832000D1F80C2801F5016100F070F8FF232360FB
:10833000002010BD00000020002000204323014841
:108340000B80704704000020122301480B80704707
:1083500047000020042301480B807047590000208B
:1083600008B50A4602490348FFF7B9FF084608BDA9
:1083700018280020389C060808B50A460249034818
:10838000FFF7ADFF084608BD18280020479C0608E7
:1083900008B50A4602490348FFF7A1FF084608BD91
:1083A000182800204C9C060808B50A4602490348D4
:1083B000FFF795FF084608BD18280020569C0608C0
:1083C00008B50A4602490348FFF789FF084608BD79
:1083D00018280020619C0608704770477047704756
:1083E00070477047044B00200522C3F80828C3F8E3
:1083F0001809C3F81C09704700200020024B002018
:10840000C3F80808704700BF00200020212838B5B5
:108410000C461BD022282BD0202815D1A1B1072A29
:1084200012D11A4DD5F81C3913B1096800209847AC
:108430002368C5F82039237985F82439637985F8CC
:108440002539A37985F82639002038BD0029FBD0CD
:10845000072AF9D10D4BD3F820290A6093F8242973
:108460000A7193F825294A7193F826398B71EBE745
:108470000029E9D0022AE7D1044BD3F81839002BA0
:10848000E2D0098800209847DEE700BF00200020E6
:1084900030B50E4CD4E900329A1AC2F30A020A44EB
:1084A000B2F5006F10D801440022814203D102B11D
:1084B0002360002030BDE21810F8015B1572013313
:1084C000C3F30A030122F0E70220F3E700200020B3
:1084D000034BD3F8280908B103691847704700BF58
:1084E00000200020034B93F85009003818BF0120EA
:1084F000704700BF00200020034B93F85009032869
:1085000094BF0020012070470020002000487047E1
:1085100054290020837B042B0DD0074BD3F89820DF
:108520000132C3F89820426004228273D3F89C2061
:108530000132C3F89C207047645B0020202301486F
:108540000B8070475D000020122301480B807047AC
:108550007D000020042301480B8070478F0000201D
:108560000A4608B5044920B90448FFF7B8FE024896
:1085700008BD0348F9E700BF842900206F9C060866
:10858000879C060808B50A4602490348FFF7A7FE7C
:10859000084608BD842900209F9C060808B50A46A5
:1085A00002490348FFF79BFE084608BD84290020C6
:1085B000B29C060808B50A4602490348FFF78FFE39
:1085C000084608BD84290020BD9C0608002370B51C
:1085D0004D1C1E46040FB0F1204F34BF30343734E9
:1085E00001F8134005F813600133DCB2A2424FEAF0
:1085F0000010EFD870BD1A2310B50B80094BD3F8CB
:10860000E807D3F8EC2780180AD0D3F8EA470649E0
:108610000822FFF7DBFF042210312046FFF7D6FFC8
:10862000024810BD00F0FF1F9500002093000020BD
:1086300008B5FFF74DFF80F00100404240B208BD91
:10864000002070472DE9F84FDFF840800E461746AE
:108650001D460024A54202DC0020BDE8F88F06EB91
:10866000442A04EB0709D8F8283903B9FEE7D3F800
:1086700004B000231A4651464846D8470028F2D095
:10868000FFF726FF0028FBD00134E3E7002000209D
:108690002DE9F84FDFF844A00E4615461F4600248A
:1086A000A74218DD06EB442905EB040801E0FFF7BB
:1086B0000FFFDAF8283943B1D3F80CB000231A467B
:1086C00049464046D8470028F1D1FFF701FF00286E
:1086D000FBD00134E4E70020BDE8F88F0020002043
:1086E0000020704770477047D0ED007AD0ED036AE4
:1086F00030EE677AE6EE877AB0EE670AC0ED007A70
:108700007047D0ED017AF5EE407AF1EE10FA09D11A
:10871000DFED0F7A60EEA70AB7EE007AC7EE207A97
:10872000C0ED017AD0ED017A80ED021A71EE277A60
:10873000C1EE276AD0ED007AC0ED036A30EE677AA9
:10874000E6EE877AB0EE670AC0ED007A704700BFA8
:10875000DB0FC9402DE9F347038A8689B6B2054687
:108760000C461E404FF0004901F14C0701F134085E
:1087700016B902B0BDE8F087B6FA86F329FA03F21B
:10878000D24391B2298216401B3B002C40D0042BCF
:10879000EED8DFE803F039342E280300E368D5F87B
:1087A0002CA02BB19B681BB11FFA8AF1201D9847A2
:1087B000636A33B19B6823B11FFA8AF104F11C008C
:1087C0009847E36B2BB19B681BB11FFA8AF14046B7
:1087D0009847636D002BCBD09B68002BC8D01FFA45
:1087E0008AF1384603E0E368696B5B68201D9847AF
:1087F000BEE7636AA96B5B6804F11C00F7E7E36BF3
:10880000E96B5B684046F2E7636D296C5B68E8E7FB
:10881000042B06D8DFE803F00D0B09070300EB6A11
:108820000193019BA4E76B6BFAE7AB6BF8E7EB6B8B
:10883000F6E72B6CF4E790F84820531C0244DBB2B7
:1088400080F8483082F8341090F849200AB1132B90
:1088500001D94FF047BC7047002280F849204FF003
:1088600041BC70B5124D95F8833A002BFBD10446FC
:108870004618B44204D1002070BD012009F049FF20
:10888000D5F8843AD5F8882A0133C3F30A03934212
:10889000F3D0D5F8843A14F8012B2B4483F88C2AB2
:1088A000D5F8843A0133C3F30A03C5F8843AE0E704
:1088B0000020002038B50C461146FFF7C5FC48B132
:1088C000054D002AD5F8943104DD2046FFF7C9FF95
:1088D000D5F8943138BD00BFF8300020F0B590F8DD
:1088E000CF5590F8CE1590F8D12590F8D03590F866
:1088F000CC7590F8CDC501EB05218DB203EB0223B9
:1089000090F8D31590F8D22585B002EB012207F03C
:108910001F06012192B29BB28E4204468DF8087068
:108920008DF809C0ADF80A50ADF80C30ADF80E2046
:10893000C0F8402180F8111100F00C81022E00F0E7
:108940001D81002E40F09B81BCF1090F5ED8DFE84D
:108950001CF0B600F4005D00C8005D0057000A007E
:108960005D00A90076002E0A022EADF806200BD07D
:10897000032E25D0012E49D1D0F8EC351B68A07804
:108980000DF10601984709E0D0F8E43580789B6A3C
:108990000DF1060198474670C4F8F005BDF80620B1
:1089A000002A47D0BDF80E30002B43D09A4228BF92
:1089B0001A46ADF80620014620464EF0AFFE39E0DB
:1089C000E9B2052922D8DFE801F003070B0F1317DE
:1089D000D0F8EC355B68D2E7D0F8EC359B68CEE791
:1089E000D0F8EC35DB68CAE7D0F8EC351B69C6E790
:1089F000D0F8EC355B69C2E7D0F8EC359B69BEE78F
:108A00001A4303D190F81231032B03D120464EF0C4
:108A1000B1FD0FE0016905F07F0680F814610B6875
:108A200065F30A121A430A604EF08CFE2EB102233F
:108A300084F81231002005B0F0BD0123F8E7E9B257
:108A4000904D012985F89811E0D890F81231022B49
:108A50000FD0032BDAD1C1B9022380F81231D0F83C
:108A6000E43580F810115B68984720464EF06AFEA6
:108A7000E0E70029F9D00121032380F8101180F8E4
:108A8000123120464EF038FDEFE790F81011012921
:108A9000EBD0D0F8E4355B68984795F8981184F8E6
:108AA0001011EEE7012AB1D190F81231022B04D057
:108AB000032BABD100F588717EE773497CE790F812
:108AC0001231023B012BA1D86E4B0022C3F8A0212A
:108AD000D0F8182112B10222C3F8A0216B4902225A
:108AE0006AE7012D08D1C0F81851D4F8E43502A97D
:108AF0009B6820469847B8E7022D9BD1DAB2002A3E
:108B000098D102691B0A023B5268032B03D8DFE8A5
:108B100003F00C0E1012012363F30612594BC3F835
:108B2000A421012384F816319FE70223F4E70323ED
:108B3000F2E70423F0E70523EEE790F81231023B59
:108B4000012B3FF663AF012D7FF474AF0023C0F813
:108B50001831CAE790F81221032A7FF457AFDBB22D
:108B6000012B3FF653AFD0F8E43502A99B68984734
:108B7000BDF80E30002B7FF45DAF76E707F060079D
:108B8000202FD9B205D1D0F8E43502A99B689847C7
:108B900050E7BCF1010F31D0BCF1030F1ED0BCF186
:108BA000000F7FF447AF90F81221022A5AD0032A0F
:108BB0007FF42CAF13F0800F4FF02802314B59D0C7
:108BC00001F07F0102FB010191F81E21002A4FD024
:108BD0000122C3F8A8212E490222EDE690F81231B5
:108BE000022B3FD0032B7FF411AF002D7FF47DAF1C
:108BF0004A063FF47AAF4EF08BFC76E790F81221EC
:108C0000022A2FD0032A7FF401AF002D7FF412AF88
:108C100011F07F003FF429AF5BB2002B4FF0280228
:108C2000B5BF02FB004102FB014101F58E7101F568
:108C30005D710022DB0F08708A704B7004EB8000BE
:108C4000C9786BB18269136802396FF355530129F2
:108C50008CBFC3F30071012161F31C73136044E7FF
:108C6000426DF0E74B063FF4E5AE4EF051FCE1E615
:108C70000022AEE702FB010191F87623A6E707F098
:108C80008001F2E7F8300020943200209832002072
:108C9000A032002010B5044671BB90F81131032BAF
:108CA0001BD1D0F89023D0F87C339A4217D9C178E1
:108CB000012908BFD0F88013A2EB030204BFC91832
:108CC000C0F88013934228BF1346C0F890239BB28C
:108CD000D0F8802300214EF0E5FD002010BDD0F833
:108CE000E4351B6923B190F81221032A00D198477B
:108CF00020464EF027FDF0E7D0F8E4359B69002BC5
:108D0000EBD090F81221032AE7D19847E5E770B538
:108D10000A7812F0600406460D462AD0202C2FD186
:108D2000CC884B78FCB112060CD51F492246184658
:108D3000FFF76CFBEA881C4930464EF0EFFC00243C
:108D4000204670BD194A1360194A0323C2F80C4823
:108D500080F81131C0E9E444234602F501620021A4
:108D60004EF0A0FDEBE7022211441846FFF74EFB40
:108D7000E6E74B780A2B08D00B2B0BD0062BDFD164
:108D800030464EF0F7FB0224DAE70A4901224EF0A2
:108D9000C5FCD5E78B781BB9074BC3F8AC41CFE7CF
:108DA0004EF0E8FBCCE700BF1028002000000020B8
:108DB00000200020A4320020F830002010B5282325
:108DC00003FB0101074AB1F88C1304461046FFF774
:108DD0005FFB2046034A402301214EF063FD002043
:108DE00010BD00BFA832002070B50F4DD5F8F83186
:108DF000044643B195F8FC2195F81032134302D193
:108E000001214EF085FB812120464EF081FB95F833
:108E10001032022B07D12046044ABDE870401F23C0
:108E200001214EF03FBD70BDF8300020E832002037
:108E3000002310B51946044640224EF0D2FB4022D2
:108E40008021204600234EF0CCFB012384F8123110
:108E5000D4F8E835A0785B689847002010BD38B595
:108E600040220446022381214EF0BBFB2046022310
:108E7000402201214EF0B5FB204603230822822127
:108E80004EF0AFFB084B0222002583F84B2083F8FD
:108E90004C50FFF7A7FA01212046044A40234EF028
:108EA00001FD284638BD00BF00000020A832002088
:108EB00010B5812104464EF06BFB204601214EF097
:108EC00067FB204682214EF063FBFFF797FA0020F4
:108ED00010BD10B5812104464EF05AFB20460121F9
:108EE0004EF056FB024B002083F8110210BD00BF6C
:108EF000F830002070B5234D95F8832A012A0346E7
:108F00002FD1214ED6F8144214B985F8834A24E0B3
:108F1000402C24D80ABF0222A4B285F8832AD5F8AF
:108F2000881A1A4A0A44C3E9542240F20111002265
:108F3000A3F84411C3E9564203F5A27118464EF056
:108F400018FCD5F8883A2344C3F30A03C5F8883AD5
:108F5000D6F814321B1BC6F81432002070BD402412
:108F6000DDE7022AF9D1002440F20112C0E954449D
:108F7000C0E95644A0F8442100F5A2714EF0F9FB77
:108F8000C3E700BF00200020F83000208C2A00201A
:108F900070B52B4ED6F818320F2B03F1010203D017
:108FA000C6F81822002070BD264D0023C6F81832DE
:108FB00095F8833A002BF5D1D5F8882AD5F8843A6C
:108FC0009A42EFD0D5F8882AD5F8843A9A4295BFCC
:108FD000D5F8844AD5F8884AD5F8883AC4F50064AB
:108FE00098BFE41A402CC6F8144221D9012385F811
:108FF000833A4024D5F8882A134B1344C0E95433EC
:1090000040F201120023C0E95643A0F8442100F5C4
:10901000A2714EF0AEFBD5F8883A2344C3F30A039D
:10902000C5F8883AD6F814321B1BC6F81432B9E7D3
:109030000EBF02230123A4B285F8833ADAE700BF0A
:10904000F8300020002000208C2A0020064BD3F8A6
:1090500080391A79022A05D19A68920702D558698F
:109060004DF0BABF704700BF0020002010B50A4C79
:10907000D4F8800905F070FF58B9D4F88009037955
:10908000022B08D183689B0705D5BDE8104007F087
:1090900039BD00BFECE710BD0020002073B50A4EBB
:1090A000441C0025D6F88009012300220DF1070198
:1090B0004FF05CF89DF80700FF2802D10135A5426A
:1090C000F0D102B070BD00BF0020002037B50446CB
:1090D00008200191FFF7E2FFFF2813D0FE2813D1EB
:1090E0000A4D019BD5F88009002221464FF03EF839
:1090F0000022D5F88009022311464FF037F80020EE
:1091000003B030BD0120FBE70220F9E7002000207A
:1091100037B5124D4FF6FF530024D5F88009ADF84E
:10912000043001AA02232146C5F84C494FF01EF82D
:109130000120FFF7B3FFFF2805D1042385F850393C
:10914000022003B030BD092385F85039044BD3F811
:109150009431C5F840392046F3E700BF00200020D5
:10916000F830002013B540F040038DF800300B0EAE
:109170008DF801300B0C8DF802300B0A8DF803309E
:10918000952304468DF804108DF805304FF014F83F
:1091900000B964B907480623D0F880096A4600215F
:1091A0004EF0E4FF0820FFF779FF02B010BDFF206A
:1091B000FBE700BF002000202DE9F041194C1E46BE
:1091C00094F85039042B0546884617461CD1FFF702
:1091D0003DFF94F8463903BB69021120FFF7C2FF37
:1091E000E8B9052384F850390F4BC4F82C89D3F81B
:1091F0009431C4F83059C4F83879C4F83C69C4F8DB
:1092000040390120BDE8F081082B01D00020F9E7AA
:10921000FFF77EFF0228F9D1D9E72946DDE7FFF7FE
:1092200025FFF3E700200020F830002038B50022A9
:109230000E233621022006F0E3F9234CC4F88009FE
:1092400010B984F8500938BD002105F063FE0120F3
:1092500009F05FFAD4F880391C4D586905F0BEFF5B
:10926000D4F880391A4893F91030142202FB030015
:109270000022D0F8B0000A2311464EF04BFFD4F87C
:10928000800905F069FE50B9124B84F84409D3F8FF
:109290009431C4F84039012384F85039D3E7013DB3
:1092A000EDD1D4F88009022105F034FED4F880090C
:1092B00005F023FE94F84439C4F88059013384F84A
:1092C000505984F84439BEE700200020A1860100EF
:1092D00000000020F830002038B5134C0023A07B9C
:1092E000E0B125688D4219D1104C03F581751AB98A
:1092F00004EB0514A27138BD04F1180101EB4323FE
:109300009A4209D1831E5842584104EB05144EF08D
:1093100001F80123A371EEE70020F6E70133082BE3
:1093200004F11004DBD1E6E77C5B0020644B0020F5
:10933000174838B5002380F8A03000F118042568DC
:109340008D421ED1A57B032D1BD1124C03F58175D7
:109350004AB904EB05140423A371D0F89C300133FF
:10936000C0F89C3038BD04F1180000EB4320131AFC
:109370005842584104EB05144DF0CCFF0123A37172
:10938000F0E70133082B04F11004D8D1EAE700BF5D
:10939000645B0020644B002070B50446144EFFF758
:1093A00098FD20460223402281214EF01AF94022E6
:1093B0000121204602234EF014F90025D6F81C3274
:1093C00086F811521B6886F8105228469847E068C4
:1093D0004EF0B2FCE06801214EF0C4FC20461F2391
:1093E00006F5F87201214EF05DFA284670BD00BF07
:1093F000F83000202DE9F0418C4D142606FB005674
:109400000446D6F8B0000F46002800F0D58096F844
:10941000C200002840F0D08096F8B8004BF0F4FC71
:1094200096F8B83003F01F025B090121023B01FAF4
:1094300002F2032B08D8DFE803F07771026B7C4956
:109440000B6923EA02020A61142303FB0453661C1E
:1094500093F8B50005F036FFF6B2804618B140F635
:109460000B33C3800672142303FB045393F8B70035
:1094700005F028FF18B140F60B53C3800672142381
:1094800003FB045393F8B60005F01CFF18B140F637
:109490000B43C3800672142606FB045696F8B920C7
:1094A000002F47D04A21404605F0CCFE96F8B70081
:1094B00005F008FF96F8B9202A2105F0C3FE96F8BA
:1094C000B60005F0FFFE96F8B920142606FB0456F8
:1094D0000A2105F0B7FE96F8B40030B105F0F2FEAF
:1094E00096F8B920092105F0ADFE142303FB0453BF
:1094F000504AD3F8B030934228D102F58432516AF1
:1095000041F480515162516A21F4805151622AE044
:1095100047494B6923EA02024A6195E744490B6ACD
:1095200023EA02020A628FE741494B6A23EA0202F8
:109530004A6289E70A21404605F084FE96F8B700A2
:1095400005F0C0FE96F8B9200A21B6E73A4A9342E0
:1095500034D102F50032116A41F480411162116A7E
:1095600021F480411162002F5CD00020024619884E
:10957000024301F441510A4342F447721A809A8B24
:1095800022F400621204120C9A830A221A821A88A8
:1095900092B242F040021A80142303FB045393F862
:1095A000B40018B105F08EFE05F018FE142000FB83
:1095B0000454012084F8C200BDE8F0811F4A9342A0
:1095C00009D102F5FE32116A41F400411162116ABB
:1095D00021F40041C6E71A4A934209D102F58232CA
:1095E000516A41F400515162516A21F400518DE7F2
:1095F000144A934209D102F56842516A41F480113C
:109600005162516A21F4801180E70F4A9342AAD136
:1096100002F56442516A41F400115162516A21F429
:10962000001173E701200222A1E700BF0000002023
:10963000003802400030014000380040003C00404B
:10964000003401400050014000540140104B98424A
:1096500016D0A3F57843984214D003F5806398425E
:1096600012D102220B4B142101FB0233B3F8C020AC
:10967000013292B2A3F8C020B3F8C00080B27047A4
:109680000022EFE70122EDE74FF0FF30704700BF07
:10969000003001400000002008B540F2E9330289A3
:1096A00092070BD589B2818140F2E9330289D20752
:1096B0000CD4013B9BB2002BF8D103E0013B9BB2E1
:1096C000002BECD1FFF7C2FFC0B208BD8089FBE7D9
:1096D000154B984230B523D0A3F57843984221D05A
:1096E00003F5806398421AD1022403880F4A23F0BD
:1096F00040031B041B0C1425038005FB0422038874
:10970000D2F8BC2023F0380332F821201B041B0CB4
:109710001343038003889BB243F04003038030BDB2
:109720000024E2E70124E0E70030014000000020CF
:109730000E49D1F8883043F47003C1F888300C4BDF
:109740001A68002042F001021A6098601A6822F03C
:10975000847222F480321A60064A5A601A6822F42F
:1097600080221A60D860044B8B60704700ED00E0E7
:1097700000380240103000240000000870472DE936
:10978000F041476906468846002F59D10368C3F364
:109790000D0515B3D8F800803568FEF705FD0928DA
:1097A00040F08780444C236923F44073236123698C
:1097B00043F400732361236943F001032361C5F877
:1097C0000080FEF7F1FC2369092823F001032361DF
:1097D0006FD133680433336032E0384A934229D37F
:1097E00002F58042934224D302F5804293422AD369
:1097F000334A934229D902F58032934227D902F5A0
:109800000032934225D902F50032934223D902F562
:109810000032934221D902F5003293421FD902F55A
:10982000802293421DD9B3F1016F1CD3052009F0AA
:10983000DFF80825FEF7B8FC092816D04FF0FF37EF
:109840003846BDE8F0811025F4E71825F2E7202519
:10985000F0E72825EEE73025ECE73825EAE7402554
:10986000E8E74825E6E75825E4E7134C236923F4A5
:1098700040732361236943F400732361236923F058
:10988000F803236123691D4345F00205256123691F
:1098900043F480332361FEF787FC236923F002033E
:1098A00023612369092823F0F80323613FF472AF91
:1098B000C4E76FF00107C3E7003C02400040000826
:1098C000FFFF00080028ACBF00F16040064B4FEAE4
:1098D0000111ACBF00F5614000F00F00C9B2B4BF88
:1098E000195480F80013704714ED00E02DE9F0479B
:1098F0009846414B914603EB800205469468002C44
:1099000078D02833636004F13E03A36104F59F73AC
:10991000E3614FF48073C4E90433236894F83D0095
:10992000E160A36305F0CEFC064694F8440294F887
:109930003CA0271D08B14BF067FA94F8450208B126
:109940004BF062FAD4F840321BB12C4A116B0B4336
:10995000136318F0080F2CD00135EDB21EB140F2A0
:109960000673F380357218F0100F94F846221AD05F
:109970000221304605F066FCD4F8481294F94702FB
:10998000FFF7A0FF94F9473294F84722002B07DB3A
:1099900002F01F0101228A405B09194941F8232086
:1099A0003846BDE8F08718F0200F14BF122132218D
:1099B000DFE719F0020F0CD06B1CDBB21EB140F2D6
:1099C0000652F280337294F846220221304605F0A6
:1099D00039FC19F0010FCFD0504605F073FC01356A
:1099E000EDB218B140F20663C380057294F84622C6
:1099F0000221BFE72746D3E7ACFF05080038024045
:109A000000E100E00148FEF738BB00BF0401002080
:109A10000148FEF732BB00BF500300207047064AE2
:109A2000002352F83310814201D1D8B2704701337C
:109A30000E2BF6D1FE207047040006082DE9F047F2
:109A400006460068FFF7EBFF0D28054608DD1F4AB4
:109A50000021052006F02EFB00242046BDE8F087FB
:109A60001B4F07EB80094FEA8008D9F820A2BAF112
:109A7000000F1CD10721642006F0E8FB0446C9F85A
:109A8000200228B90146134A052006F013FBE4E73B
:109A90006422514655F06AFA0F48D9F820322DB2A7
:109AA00000EBC505C3E90053DB615B63DB6447443E
:109AB0007179D7F82042182000FB014300221C4690
:109AC000C3E903229E601A750434C6E7CB9C0608DE
:109AD000F8300020F09C060804000608704770B5B6
:109AE000002828D04C684CB9426815685679AB8973
:109AF00002229BB2B24023EA0203AB818A683AB9E0
:109B000043681D68AB8923F001031B041B0CAB8168
:109B1000816044B14468216864798D890223A3403F
:109B20002B439BB28B8132B143681A6893899BB2F5
:109B300043F00103938170BD0B4B30B51A460024EE
:109B40001D79854208D1DD68294203D0142000FB2D
:109B5000042030BD0029F9D00134092C03F114038D
:109B6000EED10020F5E700BF9805002038B5036866
:109B70001B681C68254B03F24C6393ED007A07EEDB
:109B8000902AB8EE477AF8EE677A013987EE270A0D
:109B90008DB2DFED1F7A30EE270A50F031FA1D4A00
:109BA00023880138944280B29BB212D002F58062C1
:109BB00094420ED0B4F1804F0BD0A2F58032944283
:109BC00007D002F58062944203D002F5806294428D
:109BD00002D123F070039BB20F4A944206D002F5E3
:109BE000806294421CBF23F440739BB22380094BD4
:109BF000E5629C42208503D003F580639C4201D13D
:109C0000002323860123A38238BD00BF000000206B
:109C10000AD7233C00000140001000402DE9F0432A
:109C20004568A87910F0040300F002020BD0002070
:109C300017468046042406466B79032B49D8DFE893
:109C400003F0094A89C990464FF480701F461C46AC
:109C50000126F1E72D682B8C23F001031B041B0C5C
:109C60002B84B5F820C0B5F804902B8B23F0730338
:109C70001B041B0C43F0600E2CF0020C6E4B4FEAE1
:109C80000C4C4FEA1C4C48EA06069D421FFA89F923
:109C90004CEA060C03D003F580639D420AD14FF6CF
:109CA000F3730CEA03033B4329F4407943EA040CC1
:109CB00040EA0909A5F80490A5F818E06963A5F839
:109CC00020C02B8B23F008031B041B0C43F008035C
:109CD0002B83BDE8F0832D682B8C23F010031B042D
:109CE0001B0C2B842A8CB5F804E0B5F818C0524B35
:109CF0002CF4E64C22F020024FEA0C4C12044FEAFE
:109D00001C4C120C48EA06069D421FFA8EFE4CF4CB
:109D1000C04C42EA061203D003F580639D420BD18A
:109D200022F0800242EA071222F040022EF4406E36
:109D300042EA04124EEA800EA5F804E0A5F818C025
:109D4000A9632A842B8B23F400631B041B0C43F4AC
:109D50000063BDE72D682B8C23F480731B041B0C60
:109D60002B842A8CB5F804E0B5F81CC022F40073EB
:109D70002CF0730C304A4FEA0C4C1B044FEA1C4C7D
:109D80001B0C48EA060695421FFA8EFE4CF0600C4A
:109D900043EA062303D002F5806295420BD123F4F7
:109DA000006343EA072323F480632EF4405E43EA12
:109DB00004234EEA001EA5F804E0A5F81CC0E963E0
:109DC0002B84AB8B23F008031B041B0C43F008030C
:109DD000AB837EE72C68238C23F480531B041B0C7D
:109DE0002384258CA288A38B25F400552D0448EAF2
:109DF00006062D0C23F4E64345EA06350E4E1B04F9
:109E00001B0CB44292B243F4C04303D006F5806603
:109E1000B44203D122F4804242EA8012A280A3839A
:109E200021642584A38B23F400631B041B0C43F4DF
:109E30000063A3834DE700BF0000014043685A79E7
:109E4000032A0FD8DFE802F00205080B1868343047
:109E5000704718683830704718683C307047186889
:109E6000403070470020704710B543681A68587931
:109E7000084B0344012093F8C840138CA0409BB2C8
:109E800023EA00031384138CA140194389B211847F
:109E900010BD00BFACFF0508F0B5EFF3118410232F
:109EA00083F31288C5684668AA68136823F0010323
:109EB000136032687779104E938936F817609BB239
:109EC00023EA060393812A696D681F2A4FF0200355
:109ED00085BF203A93409340EB6098BFAB60E3B2FC
:109EE00083F31188C3689B6859601A6842F00102C5
:109EF0001A6001230374F0BDACFF05080268137DEE
:109F0000012B04BF0223137592F82C100CBF4FF4E1
:109F100000730023012904BF022182F82C1092F85B
:109F2000441008BF43F48063012904BF022182F872
:109F3000441092F85C1008BF43F4006301290DD16E
:109F4000022182F85C1043F48053426811680022B9
:109F50004A628A8992B213438B8101E0002BF4D1CB
:109F60007047034B0348D3F82012FEF7F3BB00BF42
:109F7000F83000200000014010B5064C0648D4F827
:109F80002012FEF7E7FBD4F840120448BDE8104069
:109F9000FEF7E0BBF8300020000001400040014027
:109FA00010B5064C0648D4F82012FEF7D3FBD4F8BF
:109FB00044120448BDE81040FEF7CCBBF830002046
:109FC000000001400044014010B5064C0648D4F89A
:109FD0002012FEF7BFFBD4F848120448BDE8104039
:109FE000FEF7B8BBF83000200000014000480140F7
:109FF000034B4FF08040D3F82412FEF7ABBB00BFF9
:10A00000F8300020024B0348D3F82812FEF7A2BB19
:10A01000F830002000040040024B0348D3F82C1213
:10A02000FEF798BBF830002000080040024B0348C0
:10A03000D3F83012FEF78EBBF8300020000C004041
:10A040000348D0F85C3613B100F5CA601847704772
:10A05000000000200348D0F87C3613B100F5CE6034
:10A0600018477047000000200348D0F89C3613B111
:10A0700000F5D26018477047000000200348D0F870
:10A08000BC3613B100F5D6601847704700000020B9
:10A090000348D0F8DC3613B100F5DA601847704792
:10A0A000000000200348D0F8FC3613B100F5DE6054
:10A0B00018477047000000200348D0F81C3713B140
:10A0C00000F5E26018477047000000200348D0F810
:10A0D0003C3713B100F5E6601847704700000020D8
:10A0E0000348D0F85C3713B100F5EA6018477047B1
:10A0F000000000200348D0F87C3713B100F5EE6073
:10A1000018477047000000200348D0F89C3713B16F
:10A1100000F5F26018477047000000200348D0F8AF
:10A12000BC3713B100F5F6601847704700000020F7
:10A130000348D0F8DC3713B100F5FA6018477047D0
:10A14000000000200348D0F8FC3713B100F5FE6092
:10A1500018477047000000200348D0F81C3813B19E
:10A1600000F5016018477047000000200348D0F850
:10A170003C3813B100F50360184770470000002019
:10A18000036823F0010303600023036043608360DE
:10A19000C3600361212343612A4B984203D13D22CE
:10A1A00043F8082C7047284B984204D14FF474624E
:10A1B00043F8202C7047254B984204D14FF4741279
:10A1C00043F8382C7047224B984204D14FF0746208
:10A1D00043F8502C70471F4B984203D11E4A43F856
:10A1E000642C70471D4B984203D11D4A43F87C2CC8
:10A1F00070471C4B984203D11B4A43F8942C70477C
:10A200001A4B984204D14FF03D5243F8AC2C17E062
:10A21000174B9842C3D0174B9842C7D0164B984261
:10A22000CCD0164B9842D1D0154B9842D6D0154B76
:10A230009842DAD0144B9842DED0144B9842E2D0C8
:10A24000704700BF1060024028600240406002403A
:10A2500058600240706002403D000020886002406B
:10A26000400F0020A060024000003D20B860024086
:10A270001064024028640240406402405864024076
:10A280007064024088640240A0640240B8640240E6
:10A290002DE9F0410022012603250B6806FA02FC95
:10A2A0003CEA030331D10368540005FA04FE23EAB3
:10A2B0000E0303600B79D0F800806FEA0E0703FAF3
:10A2C00004FE013B4EEA080E012BC0F800E011D855
:10A2D00083681F4087604B798768A3403B43836056
:10A2E000436823EA0C0343608B79476893409BB231
:10A2F0003B434360C36805FA04F723EA0703C360DE
:10A30000CB79C768A3403B43C3600132102AC4D154
:10A31000BDE8F081204A936803F00C03042B10B5CC
:10A3200020D0082B20D01D4B1B4C0360A3681C4A77
:10A33000C3F30313134493F850180368CB404360EE
:10A34000A168C1F38221114491F8501823FA01F158
:10A350008160A168C1F342310A4492F85028D34089
:10A36000C36010BD0F4BDFE75368516813F4800FD3
:10A3700001F03F01536814BF0A4A084AB2FBF1F1E9
:10A38000054A5268C2F30142C3F3881301324B43BA
:10A390005200B3FBF2F3C7E7003802400024F40098
:10A3A0000000002040787D01F0B5446B8668A389E9
:10A3B00023F400531B041B0CA3818279278A0546D2
:10A3C000BFB2100312F0040F4FEA022100F4005054
:10A3D0006A7927F4405740EA0700208214BF4FF4FF
:10A3E000805C4FF0000C12F0010F0CBF002304231F
:10A3F0009207A28922F4B05201F4806122F00C028B
:10A4000048BF43F0080341EA0C0112040B43120C4D
:10A410001A43A281A38A23F440731B041B0C85B04A
:10A42000A3826846FFF776FF214B9C4203D003F5D9
:10A4300080639C423AD1039BA2891921170401FB36
:10A4400003F34FF064014CBF7600B600B3FBF6F3A4
:10A45000B3FBF1F001FB10330201A08900044BBFF4
:10A46000DB001B01323332334BBFB3FBF1F3B3FBE1
:10A47000F1F303F0070303F00F0313439BB22381AF
:10A480006A6BAB7913F0080F938A0BBF23F00803B4
:10A490009BB21B0443F0080308BF1B0C93829389F3
:10A4A0009BB243F40053938105B0F0BD029BC3E718
:10A4B000001001402DE9F8431E46204B9DF8205026
:10A4C0009DF824709842894690462CD13B462A46F6
:10A4D00031460020FFF70AFA04460020C4E90700CD
:10A4E000C4E90900C4E90B986571A660A77120460C
:10A4F000FFF75AFFEA0707D5636B4FF6DF721A8042
:10A50000DA6842F02002DA60626BAB0742BFD368C0
:10A5100043F08003D36093899BB243F4005393814B
:10A520002046BDE8F883064B984204D13B462A46B4
:10A5300031460120CEE70024F2E700BF00100140C1
:10A540000044004081602FE741712DE72DE9F04381
:10A55000654F07EBC00985B005464FEAC00899F87A
:10A56000640804F0AFFE064699F8650804F0AAFEF8
:10A57000044699F866084AF047FC6B1CDBB21EB132
:10A5800040F60D12F28033721CB140F60D22E280CB
:10A59000237204223A21304604F054FE204604225D
:10A5A0003A2104F04FFE07EB0803D3F860484F4B05
:10A5B0009C4263D103F5F2331A6A42F400121A6224
:10A5C0001A6A22F400121A62474497F86738022B7D
:10A5D0006ED0032B6ED0464E464A012B08BF16465E
:10A5E000A78827F03F0768463F04FFF793FE3F0C1C
:10A5F000029A414BB2FBF3F398B20743A78021883C
:10A6000021F001010904090C21803C498E4253D1FB
:10A610003B4BB2FBF3F2013092B2042A80B238BF56
:10A6200004222084A28323889BB243F00103238069
:10A63000238823F4816323F002031B041B0C43F4DF
:10A64000806323804FF480432381238823F0800399
:10A650001B041B0C238023889BB243F0010323803F
:10A66000284B03EB4513012283F85922002283F87B
:10A67000585283F85A2205B0BDE8F083224B9C4221
:10A6800009D103F5F0331A6A42F480021A621A6A99
:10A6900022F4800297E71D4B9C4295D103F5EE33DF
:10A6A0001A6A42F400021A621A6A22F400028AE765
:10A6B000124E95E7124E93E706EB4606B2FBF6F212
:10A6C00091B2C2F30B020AB941F0010141F4004218
:10A6D0004FF496714B434FF47A71B3FBF1F30133AE
:10A6E0009BB223849EE700BF00000020005400407E
:10A6F000801A060000350C0040420F00A0860100C1
:10A70000400D0300F830002000580040005C00407D
:10A710002DE9F047B74D460105EB401907F072FEF1
:10A7200099F95822B44B8846D10003EBC202074680
:10A73000D2F8604899F85A22013A142A00F283802C
:10A74000DFE812F0790089009F00B700C200CC005A
:10A75000D500EA00F5000A01150164017D01A3019D
:10A7600006021702290232024302670215005F182F
:10A770004FF0090A97F8640804F0A4FD044697F81E
:10A78000650804F09FFDB5F8B83201339BB2074667
:10A790002046A5F8B83204F021FD384604F01EFD2D
:10A7A0001121204604F024FD1121384604F020FD3B
:10A7B0004FF0650803E00520002107F099FF2046CF
:10A7C00004F0FBFC10B9B8F10108F4D1204604F004
:10A7D0000AFD0021052007F08BFF204604F0FEFC57
:10A7E0000520002107F084FFBAF1010AE0D12046DC
:10A7F00004F0F9FC0021052007F07AFF384604F048
:10A80000F2FC0021052007F073FF204604F0E6FC6F
:10A810000520002107F06CFF384604F0DFFCAB197F
:10A8200093F95802431C01D0FFF790FEAB190022A8
:10A8300083F85A2207E0238813F4007340F0238141
:10A84000AA1982F85A32AB1993F85A32002B7FF4C6
:10A8500065AFBDE8F087238823F400631B041B0C5D
:10A86000238023889BB243F48063238023889BB298
:10A8700043F480732380AB19C3E99878032283F8EB
:10A880005A225E492046FDF7A0FCAB19002855D09E
:10A8900093F86A225AB993F86B22FF2A04D193F8ED
:10A8A00068220AB10A22C3E7AB190422C0E70F22CB
:10A8B000BEE7AB1993F8692202F0FE022282C3E9D7
:10A8C0009878052283F85A224D492046FDF77DFCF1
:10A8D000002800F07081AB190622A9E7AB1993F8A4
:10A8E0006B222282C3E99878072283F85A224549CD
:10A8F0002046FDF76AFC002800F05D81AB19D3F813
:10A900006C223AB9228892B242F400722280C3E9E2
:10A9100098780EE108228BE723889BB243F480737A
:10A920002380AB19C3E99878092283F85A22334966
:10A930002046FDF74AFCAB190028B3D1D3E99801B2
:10A9400042F21072381A68EB0101904271F1000274
:10A95000FFF479AF15226BE7AB1993F8692242F047
:10A9600001022282C3E998780B2283F85A222649F1
:10A970002046FDF72AFC002800F01D81AA19D2F814
:10A980006C32012B1AD1238823F480631B041B0C27
:10A990002380EFF31181102383F31288238B238804
:10A9A0009BB243F400732380CBB283F311880C2352
:10A9B00082F85A32AB19C3E9987844E7022B15D1D3
:10A9C00023889BB243F400632380EFF311811023AB
:10A9D00083F31288238B238823F480631B041B0CCE
:10A9E0002380CBB283F311880D23E1E7238B0E2361
:10A9F000DEE700BFF8300020000000200100030067
:10AA000082000700840007000200030086492046F8
:10AA1000FDF7E6FBAB19002890D0D3F87022511C4B
:10AA2000C3F87012218A1170D3F86C22013AC3F86E
:10AA30006C220122C3E9987883F87422F8E67B49F6
:10AA40002046FDF7CDFBF0B1EFF31182102383F325
:10AA5000128823889BB243F400732380AB19D2B2CF
:10AA6000D3F87012481CC3F87002208A087082F371
:10AA70001188D3F87022511CC3F87012218A11700A
:10AA80006FF00102D3E7AB1958E768492046FDF79C
:10AA9000A7FBAB1900283FF451AFD3F86C22032A6F
:10AAA00003F5187130D1228822F480621204120C4E
:10AAB0002280EFF31180102282F31288D3F87022E3
:10AAC00002F1010CC3F870C2B4F810C082F800C0E3
:10AAD000228892B242F400722280C2B282F31188BC
:10AAE000D3F87022501CC3F87002208A1070D3F87B
:10AAF0006C22023AC3F86C220C2283F85A22C3F863
:10AB00006072C1F804809EE6022A14D8228822F4DA
:10AB100080621204120C2280228892B242F40072E7
:10AB20002280228AC3F86072002283F87422C1F85E
:10AB3000048001227CE6D3F87022501CC3F8700216
:10AB4000208A1070D3F86C22013AC3F86C22D6E741
:10AB5000238823F480631B041B0C2380AB1993F818
:10AB6000692202F0FE022282C3E99878102283F85B
:10AB70005A222F492046FDF728FBE0B1AB1993F884
:10AB80006B22FF2A04D193F868220AB113224FE600
:10AB9000AB1911224CE6AB1993F86B222282C3E960
:10ABA0009878122283F85A2222492046FDF70DFB9D
:10ABB00008B1AB19EAE720492046FDF711FBAB19B4
:10ABC00000283FF4BBAE142232E6AB1903F518702F
:10ABD000D3F86C2282B1D3F87012013A11F801CB8C
:10ABE000A4F810C0C3F86C22C3F86072C3F87012E6
:10ABF000C0F8048012221BE6228892B242F400724E
:10AC000022800122C3F8607283F87422C0F80480A5
:10AC10000EE623889BB243F4007323804FF6FF3384
:10AC2000A382AB1973E600BF4000001004000010BF
:10AC300082000700840007000004001038B5114CA2
:10AC400004EB401494F85952D5B1C4F86C32049B0B
:10AC5000C4F87032002384F874320223490084F867
:10AC60006B2284F85A3201229DF8143084F869125C
:10AC700084F86A2284F86832FFF74AFD94F8745227
:10AC8000284638BDF830002038B5114C04EB40148C
:10AC900094F85952CDB1C4F86C32049BC4F87032A8
:10ACA0000223490084F86B2284F85A3200229DF86E
:10ACB000143084F8691284F86A2284F8742284F8C3
:10ACC0006832FFF725FD94F87452284638BD00BF5E
:10ACD000F8300020F0B587B0002300930193744B47
:10ACE0001A6842F480321A601A6802F40032019243
:10ACF000009A01320092019A1AB9009AB2F5A04F57
:10AD0000F2D11B6813F4003318BF01230193019B98
:10AD1000012B40F0B180664B66491A6C42F08052BC
:10AD20001A640A6842F440420A609A689A609A6813
:10AD30009A609A6842F480529A605F4A5A601A6830
:10AD400042F080721A601A689201FCD55B4A40F2A8
:10AD5000027111609A6822F003029A609A6842F0C8
:10AD600002029A60524A936803F00C03082BFAD14E
:10AD70009368534C03F00C03042B7FD0082B7FD037
:10AD8000504BC4F84C364A4B4F4D9A684F48C2F36B
:10AD900003122244002692F87818D4F84C26CA40B0
:10ADA000C4F84C264A4AEA605A6F4A4AAA605A6B6B
:10ADB00022F080025A635A6F42F080725A67196B10
:10ADC000454A0A431A635A6B5A631A6C42F0875217
:10ADD00042F4F61242F41F6242F00F021A64596CF8
:10ADE0003E4A0A435A6402A948F2FF73CDE902368B
:10ADF0004FF6FF77FFF74CFA00F580600297FFF7F8
:10AE000047FA00F580600297FFF742FA00F580608C
:10AE1000FFF73EFA00F58060FFF73AFA0846FFF7C1
:10AE200079FA029B2E4AB3FBF2F32E4AC2F8BC32E7
:10AE3000D5F8FC302C4A43F08073C5F8FC302B4B1E
:10AE4000C3F8B02F5E601A6842F001021A60D4F8AD
:10AE50004C364FF47A72B3FBF2F3013BB3F1807FCF
:10AE600008D24FF0E0225361F02385F82330072306
:10AE70009661136107B0F0BD00BFFDE71C4B80E792
:10AE80005368516813F4800F01F03F01536814BFF9
:10AE9000174A0C4AB2FBF1F1054A5268C2F301426B
:10AEA000C3F3881301324B435200B3FBF2F368E75C
:10AEB000003802400070004019304004003C02405D
:10AEC000000000200024F40000ED00E0000002403B
:10AED0000003FA05000000081F90670033570700C1
:10AEE00040420F00F830002055CEACC5001000E005
:10AEF00040787D0182B000230193054B0193019BB3
:10AF000003EB80000190019B196002B0704700BF05
:10AF10005028004082B000230193054B0193019B10
:10AF200003EB80000190019B186802B0704700BFDE
:10AF30005028004010B51C2004F0C4F9112104462B
:10AF400004F056F9204604F04EF9C82007F0E1FB62
:10AF50002046BDE8104004F041B9436D064A1A612D
:10AF6000C278012A06D100F2CC5058611A684FF01D
:10AF700080221A60704700BF1800086038B5044688
:10AF800000296FD190F81131022B2AD1D0F8382145
:10AF9000D0F824118A4232D9C378012B04BFD0F8EB
:10AFA00028315B18A2EB010208BFC0F828314FF42A
:10AFB0008071D0F82831C0F83821002592B2A0F86D
:10AFC0001C11C0F82C31C0F83451C0F8302100F504
:10AFD0008E714CF051FB2B462A46294620464CF0F8
:10AFE00061FC94F81631012B07D1244A2369D2F869
:10AFF000A4215A60002384F81631002038BDD0F80F
:10B000003C31B3FBF1F501FB1535A5B9994212D8D6
:10B01000D0F8402193420ED24FF48073C0E94A55D4
:10B02000C0E94C55A0F81C3100F58E714CF024FBA2
:10B03000C4F84051CFE7D4F8E435DB682BB194F87D
:10B040001221032A01D120469847052384F81131A3
:10B05000002320461A4619464CF024FC2046FFF7F0
:10B060007CFFBEE7D0F8E4355B69002BC5D090F8D3
:10B070001221032AC1D19847BFE700BFF830002052
:10B0800070477047704710B5114C94F8CA32CBB175
:10B090004FF0E022D2F8103D23F00603C2F8103D35
:10B0A000FEF746FB94F8CA3263B1D4F8D0329B68FD
:10B0B000DB0707D5D4F8CC23136823F0030161F331
:10B0C00007031360034B4FF480225A6110BD00BF89
:10B0D000F8300020003C01402DE9F04F974CD4F8A7
:10B0E000CC325A69D0078DB000F1A4825A699B69AD
:10B0F0001340019300F09E82C3F307430293019B28
:10B10000190311D5D4F8D032DFF83C929E69DB697F
:10B1100004F5307B1E40360C04F545774FF00008EF
:10B12000DA46002E40F01681029B5A070FD5D4F85C
:10B13000D032834E9F69DB691F40BFB2A6F118056C
:10B140004FF00009A6F53678002F40F04881019BAA
:10B150009DF80470980741BF784BD3F8CC32022297
:10B160005A61019B002B1BDA744D95F8CA323BB132
:10B17000D5F8CC23136823F0030161F307031360B0
:10B18000D5F8D0226F48536823F0010353606E4B0B
:10B19000D3F8A0389847D5F8CC324FF000425A6126
:10B1A000019B1905C3F3072631D5644D00238DF8A3
:10B1B0001F3095F8D2338DF81F30634B05F5307092
:10B1C000D3F89C389847D5F8CC22D5F8D0324FF434
:10B1D00000619B68516195F8CA22C2B1DA0716D5A1
:10B1E00095F8D533012B12D19DF81F30032B0ED1CA
:10B1F000D5F8CC331A6842F001021A601A6842F09E
:10B2000003021A60514A136943F0060313613B07B6
:10B210000AD54A4D4C4B05F53070D3F89438984711
:10B22000D5F8CC3208225A61FD0615D5434BD3F828
:10B23000CC02826922F010028261026AC2F34341A9
:10B24000022902F00F0500F08681062900F0AA818C
:10B25000836943F010038361F00637D5374DD5F885
:10B26000D022D5F8CC025368002723F001035360A5
:10B2700039464CF077FDB84695F8C1023B4605F5D6
:10B280003675FF218342C0F09B81D4F8D0322D481F
:10B290004FF0FF329A614FF00112DA610B2262F334
:10B2A000070762F307085F61C3F810801A686FF33D
:10B2B0000A121A60FFF751FED4F8CC3221484FF43D
:10B2C00080525A61204BD3F898389847B10640F124
:10B2D00093811A4CD4F8D032D4F8D8029968026815
:10B2E000C1F34101022906BF032161F30A026FF392
:10B2F0000A0202605A6842F480725A6008A8FFF796
:10B3000009F8D4F8CC12D4F8D002CB68099A6FF3BC
:10B310008D23CB6085680E48C5F34105284490F81D
:10B32000CC00032840F05381002284F8C2224FF45D
:10B330000072A4F8C422092258E100BFF8300020AE
:10B34000D0330020B83300200000002000ED00E0E2
:10B35000ACFF0508F2073BD55FFA88F104EB8103E7
:10B36000D3F814339D68D4F8D0325B691D40EB07E5
:10B3700020D594F8C3023B680125A8429D6007D1FF
:10B380001869DBF87C33C0F312001B1ACBF88C333E
:10B39000D9F888385046984794F8C332012B09D120
:10B3A000B8F1000F06D194F8D133052B02D15046E5
:10B3B000FFF7D3FDA80742BF3B6802259D60290720
:10B3C00006D5D9F89038504698473B6808229A60CD
:10B3D00008F10108760804370BF1280BA1E6FB07FA
:10B3E00079D5D8F8D0325FFA89FA1969586B08EB29
:10B3F0008A0220FA0AFBD2F8D8224FEACB1B9268C5
:10B400005FFA8BFB4BEA010B0BEA020B1BF0010FFF
:10B410001ED05A6BA8484FF0010B0BFA09F122EA33
:10B4200001025A633368C3F808B0A44B5146D3F8FD
:10B430008C38984798F8C3325B4509D1B9F1000FB1
:10B4400006D198F8D133042B02D19B48FFF785FD34
:10B450001BF0080F1EBF33684FF0080BC3F808B08D
:10B460001BF0100F1EBF33684FF0100BC3F808B06D
:10B470001BF0400F1EBF33684FF0400BC3F808B0FD
:10B480001BF0020F1EBF33684FF0020BC3F808B069
:10B490001BF0800F1FD0D5E94C329B1AD5F8242120
:10B4A000D6F800E098F8C3B2DEF81800934228BF3F
:10B4B00013460333D8F8D02203929B080AF1320ACC
:10B4C000049308EB8A0A049B80B2984203D9D5E919
:10B4D0004C03984205D809F101097F080436283544
:10B4E00032E6C01AD5F82431984228BF1846C31C4A
:10B4F0009B080493BBF1000F1BD0D5F82811D5F899
:10B5000034210144C5F82811D5F8301102448A428B
:10B51000DEF81800C5F83421D5D1039B95F81C112D
:10B520005A6B012303FA01F1039B22EA01025A63D9
:10B53000C9E782B2DAF8C812D5F828C103329310ED
:10B5400005930A465946059B8B42D6D05CF82130BC
:10B5500013600131F7E747F6F07111423FF478AE1E
:10B56000282101FB0531C2F30A12D71CD3F890E35E
:10B57000D1F840C6BF1000218F420DD1282101FB18
:10B580000533D3F840161144C3F84016D3F84C16CF
:10B590000A44C3F84C265BE6DEF800804CF82180B4
:10B5A0000131E9E7D3F890130F68C3F88C78096884
:10B5B000C3F89018282101FB0533C2F30A12E5E70E
:10B5C00055F8042B9160AA6B013391605AE6012073
:10B5D00084F8C2024020A4F8C402A0F56400384CEC
:10B5E000A0F562401044A04227D80E2262F38D23BA
:10B5F000CB604FF400534B61029BDA060BD5314C04
:10B600002E4B04F53070D3F8A4389847D4F8CC32D8
:10B610004FF480125A61029B9B060BD5294C274B95
:10B6200004F53070D3F8A8389847D4F8CC324FF4EA
:10B6300000125A610DB0BDE8F08F234CA2F57400E2
:10B64000A0F51050A04201D80D22CFE71F48204C92
:10B650001044A04201D20C22C8E71E4CA2F18C700B
:10B66000A0F54340A04201D80B22BFE71A481B4C6B
:10B670001044A04201D20A22B8E71948194C1044DC
:10B68000A042FFF458AE184CA2F1B770A0F5585084
:10B69000A04201D20822A9E71448154C1044A04248
:10B6A00001D20722A2E713481044134A904234BF44
:10B6B000062205229AE700BFB833002000000020D0
:10B6C0003F420F00F8300020DFC810002013FBFEBF
:10B6D00020D61300FF69180000D3CEFE40771B0070
:10B6E000C05BB3FEC091210040AC2700C01D6AFEC4
:10B6F00040E13300803C36FEE09C4100034BD3F830
:10B700007C0908B103F059BD0120704700200020DA
:10B7100008B5FFF7F3FF0A4A18B9002382F8503939
:10B7200008BD92F844390133DBB2072B82F8443963
:10B73000F3D8044BD3F89431C2F840390123EDE734
:10B7400000200020F83000202DE9FF47CC4CD4F831
:10B750008009002867D0CB4DCB4E04F66C1794F8C7
:10B760005039013B082B46D8DFE813F00900600090
:10B77000EC004500C4014B01A0014500FF01FDF7AD
:10B7800065FC00210846FDF7EDFC8046FDF76EFCE8
:10B79000B8F1010F2AD14FF0000984F84599FDF75F
:10B7A00055FC40F2AB110820FDF7DCFC05280AD15E
:10B7B00084F84589FDF75AFC94F84539A3B1022372
:10B7C00084F85039CBE70128F4D10423D4F8800958
:10B7D0004A4669464CF0CAFC9DF80330AB2B04BFC7
:10B7E000022384F84539E5E784F85039D4F8800914
:10B7F000022103F08FFB94F85039013B022B09D84A
:10B80000A04BD4F84029D3F894319B1AC82B01D906
:10B81000FFF77EFF94F85009042800F0B681A0F1EC
:10B8200008035842584104B0BDE8F087FDF70EFC0C
:10B8300094F84539022B0CBF4FF080484FF00008B8
:10B8400000213720FDF78EFC41462920FDF78AFCB8
:10B850008046FDF70BFCB8F1000FC7D194F84539CD
:10B86000022B39D1FDF7F2FB41463A20FDF77AFC75
:10B87000042381464246D4F8800969464CF076FCA0
:10B88000FDF7F4FBB9F1000F02D0FFF741FF66E7C7
:10B89000009B1BBAC3F3807384F84639FDF7D6FBCF
:10B8A00000210920FDF75EFC98B910213846FDF70C
:10B8B0000DFC814668B901217F2049F0A3F80128D9
:10B8C000804606D10221484649F09CF838B101284B
:10B8D0002CD0FDF7CBFB89E784F84689DEE704210D
:10B8E0002C2049F08FF8032182464E2049F08AF837
:10B8F0000C218146362049F085F809F10202411CED
:10B9000001FA02F208FA0AF3A2FB03385B0A43EADF
:10B91000C853C4F85439FDF7A9FBFDF797FB002184
:10B920000A20FDF71FFC50B9032349E716213A20EE
:10B9300049F068F801308002C4F85409EBE7FDF7DC
:10B9400095FBA2E710216846FDF7C0FB00287FF4B5
:10B950004DAF9DF8003084F85A39BDF801305BBA1C
:10B96000A4F858399DF8033084F85B399DF8043009
:10B9700084F85C399DF8053084F85D399DF806300F
:10B9800084F85E399DF8073084F85F399DF80830F7
:10B990001A0903F00F0384F86539DDF8093084F8DB
:10B9A00064291BBAC4F860399DF80D309DF80E204B
:10B9B0001B01DBB243EA121303F5FA6302F00F0234
:10B9C000A4F8663984F86829FDF750FB94F84639E5
:10B9D0004BB1D4F88009022103F09CFA0023C4F88B
:10B9E0004C390423ECE6FDF731FB4FF400711020D5
:10B9F000FDF7B8FB8046FDF739FBB8F1000FE8D042
:10BA000043E794F83419D4F82C29D4F8800980231A
:10BA100002EBC11200214CF0A9FB94F83439013338
:10BA2000DBB2042B84F834397FF4E5AED4F8800916
:10BA30000223324600214CF099FB0123D4F88009FF
:10BA4000002269464CF092FB9DF8003003F01F0382
:10BA5000052B1BD1072384F850390A4BD4F83859E9
:10BA6000D3F89431C4F84039002D3FF4C4AED4F873
:10BA70003C39D4F82C29D4F830190120A847BAE66B
:10BA800000200020F83000207C000608FFF740FE70
:10BA9000D4F83889B8F1000F3FF461AED4F83C39DE
:10BAA000D4F8301900220120C04758E64CF084FB3E
:10BAB000002861D0002384F84439D4F84C39012B94
:10BAC0000BD9013BC4F84C39D4F848390133C4F8D8
:10BAD0004839082384F850398DE607D1FDF718FB63
:10BAE00002287FF488AEFDF7C1FA84E6042384F8C7
:10BAF0005039F8E7D4F82C094FF40071FDF7E6FA55
:10BB00000128804618D002281ED000287FF473AE8A
:10BB1000FDF7ACFAD4F8385984F84489042384F842
:10BB20005039002D3FF467AED4F83C39D4F82C29B5
:10BB3000D4F830194046A1E7D4F84039D5F894211B
:10BB400064339342BFF457AEFDF790FAFFF7E0FD80
:10BB5000D4F83889B8F1000F3FF401AE0022D4F8D0
:10BB60003C39D4F8301910469EE74CF025FB18B14B
:10BB7000FDF77CFA0423ADE7D4F84039D5F89421D9
:10BB8000FA339342FFF481AE35E601204BE62DE90E
:10BB9000F341294C05460E4690461F4694F850390D
:10BBA000042B0BD0082B07D1D4F84839AB4219D05D
:10BBB000FDF7AEFA0228F1D001200EE0FDF746FABB
:10BBC00094F8463963B969021820FDF7CBFA48B1F9
:10BBD000FDF74CFAFFF79CFD032002B0BDE8F081B1
:10BBE0002946F1E794F85039D4F88009082B0CBFA6
:10BBF000FC23FE23FF228DF804208DF8053001AAD6
:10BC0000022300214CF0B2FAD4F880098023324696
:10BC100000214CF0ABFA012384F834390623C4F830
:10BC20002C69C4F83059C4F83889C4F83C7984F8D0
:10BC300050390020D1E700BF0020002070B51C4C17
:10BC400094F85039042B05460E4610D1FDF7FEF945
:10BC500000213720FDF786FA31461720FDF782FADA
:10BC600090B1FDF703FAFFF753FD032002E0082B24
:10BC700001D0012070BDD4F84839834214D0FDF7BB
:10BC800047FA0228F5D1E1E794F8463973B9690219
:10BC90001920FDF767FA0028E3D1082384F850390A
:10BCA000C4F84C69C4F848590220E3E72946EFE795
:10BCB00000200020044B054A03F6B401D3F8B43841
:10BCC000C2F82819184700BF0000002000200020FB
:10BCD00008B5002049F02EF8FFF7ECFFFCF7F8FB61
:10BCE0000028FBD0012049F025F8002008BD034BB7
:10BCF000D3F8280908B1436918477047002000208D
:10BD0000034BD3F8280908B183691847704700BF6F
:10BD100000200020034BD3F8280908B1C369184755
:10BD2000704700BF0020002038B50D461446FFF7CD
:10BD3000F1FF03682B604FF400732360002038BDCF
:10BD4000034B1B78032B0CBF80204FF4807070478F
:10BD5000644B002008B50B4A68B1816811B1072314
:10BD6000937008BDFFF7ECFFC2E90311C2E90100BF
:10BD700011750423F4E702F58051012381F8B431F1
:10BD80005370EEE7644B002010B502784368022A36
:10BD90000B4A06D1D2E9800100EB410000EB5320B1
:10BDA00010BD0169D2F81802D2F8104218400239C9
:10BDB000D2F80C32400A04FB01001844F0E700BF3F
:10BDC000645B0020074B1B78022B0BBF030AC0F3F8
:10BDD000D413C0B200F07F000CBF0B600B6010608A
:10BDE000704700BF644B002090F91A305A1C0AD0EB
:10BDF00003F58172124B03EB0213DA796FF3000241
:10BE0000DA71FF23837690F91B104B1C16D00C4A75
:10BE100001F5817102EB011302EB0112DB79D1799B
:10BE2000C3F34503012B86BF03F1FF3303F03F0348
:10BE3000002363F34601FF23D171C376704700BF2F
:10BE4000644B002008B5FFF77BFF034BD3F810329B
:10BE50005843400208BD00BF645B00200378022BFA
:10BE600009D10D4BD3F820224368B3EB422F2CBFEE
:10BE7000012000207047006960B1084B1B78032B3C
:10BE80000EBF074B80B24FF6F773984294BF002065
:10BE90000120704701207047645B0020644B002044
:10BEA000F7FFFF0FF7B50D464168C1F308032B44B8
:10BEB000B3F5007F044603D22944616001202EE0DF
:10BEC000FFF792FF0378022B01D16168F4E7164B6C
:10BED000D3F81022B5EB422F4FEA422721DCD3F8EA
:10BEE000183246681E407342AB421ADCAB19BB42A3
:10BEF00010D30169007E01AA4BF0E0FA012810D1AD
:10BF000023696361019B236163683B449B1BED1BB9
:10BF1000636035442046FFF7A1FF0028D5D003B069
:10BF2000F0BD0020FBE700BF645B002070B5044655
:10BF30000E461546FFF7B6FF20B10DB12046A847C3
:10BF4000012007E094F82800022320B9C4E90B5629
:10BF500084F8283070BD1846FCE7054A92F8B41101
:10BF6000012309B982F8B431024A5370704700BF07
:10BF7000645B0020644B002008B5074BC31A48BF20
:10BF800003F2FF13B3F5805F4FEA632003D3FFF79B
:10BF9000E4FF4FF0FF3008BD7C4B00202DE9F74F48
:10BFA00012F0020B0191174600F0D180002840F0FA
:10BFB000CE80FFF7D2FF02266EE04FF0FF36DFF8AB
:10BFC000C4C1DFF8ACA1B6463446B1460025DCF862
:10BFD00000109CF80E8088421BD1B8F1000F00F0D1
:10BFE0009880D2F89840624E0134C2F8984005F526
:10BFF00081721201B4502C465D4D04F5817805EB39
:10C0000008129679042ED4D8DFE806F0315DB05DD1
:10C010006700B8F1000F26D0B8F1010F14D105F573
:10C0200081780AEB081898F8078018F0010F0BD1F7
:10C0300018F07E0F08D15FEAD81116D1DCF808801D
:10C04000C14501D9AE46C1460135082D0CF1100C91
:10C05000BDD1751C79D1611C5CD1BEF1FF3F00F0F0
:10C060008580744656E02E46EEE72C46ECE717F046
:10C07000010215D03F4BD3F82839002B76D03E492A
:10C080005F683E4A002301EB4421B84700286DD089
:10C0900005EB08150223AB71304603B0BDE8F08F05
:10C0A00005EB0810FE1090F807C0032B66F3C71CC1
:10C0B00080F807C02BD94FF6FF72934228BF134672
:10C0C00005EB08129380BBF1000F06D005EB0410BE
:10C0D00000F580501830FCF71DFA7A0741BF05EBD8
:10C0E0000812D37943F00103D371FB0608D505EBA1
:10C0F0000815EB79C3F34502013262F34603EB7195
:10C100001D4B019A03EB442313600126C4E7134639
:10C11000D6E72C46164E41F2180506EB041C4CF8E7
:10C120000500D2F898500135C2F8985041F21C022F
:10C130004CF8025004F581724FEA021C06EB021221
:10C1400046F80C500025556056E73446E2E70C4AA5
:10C15000D2F80862002E3FF430AFD2E9834505FBE8
:10C160000644A042FFF429AFFFF7F7FE002693E74D
:10C17000644B0020002000207C4B0020D992000856
:10C18000645B00207C5B00207FB50F4D01AA0C464C
:10C1900002A9FFF717FE05F58053029ED3F80002AF
:10C1A0000322002303A93044FFF7F8FE012808D139
:10C1B0002978039B019A02290CBF23F8124043F807
:10C1C000224004B070BD00BF644B00202DE9F04751
:10C1D0000D4686B0164604A903AA07462868FFF74D
:10C1E000F1FD364A0499D2F8003201EB0308039BB3
:10C1F000013B9C19FFF7A4FD2B68E41A0444A2F547
:10C20000805AB4FBF0F408EB04092968B142A9EBA9
:10C21000080303D3012006B0BDE8F087039A019319
:10C22000FFF78EFD9419641A8442019B28BF0446CF
:10C23000002A35D1A04294BF0A220B2205A940460C
:10C24000FFF7ACFE0128E6D19AF800002A680599AC
:10C25000039B022802F101022DD1A34222D32B68B5
:10C26000039A9B1A2344012F2B6014D1B34212D19D
:10C2700002280BBF04F1004404F1804304F1FF34B1
:10C2800003F1FF330BBF4FF6FF734FF0FF3221F87E
:10C29000143041F82320002308F101080393B4E788
:10C2A0000B22CBE721F8132001330132D5E741F807
:10C2B000232001330132A342F9D3D0E7645B00208D
:10C2C0002DE9F04F85B08346FFF73AFD0C46164640
:10C2D000814601AA206802A9FFF774FD0BF1FF3324
:10C2E000012B68D9019B63B94D46DFF8D080BBF1C3
:10C2F000010F8CBF4FF0000B4FF0010BA8F5805AD7
:10C300001BE0FFF72AFE02202AE0D8F87821C2B10C
:10C31000D8F89401884214D1D8F81032013A590261
:10C3200002EB4323B3FBF1F30344B3FBF5F205FB4C
:10C3300012320AB12B449B1A23602168B142E4D324
:10C3400029E0D8F80002029F0023092203A93844FB
:10C35000FFF724FE012806D00228D4D00028ECD113
:10C3600005B0BDE8F08F9AF800200399022A07D0A3
:10C37000032AC8D1019B51F8233023F0704302E017
:10C38000019B31F813302768B3FA83F35B095B45EF
:10C3900004D1BE42E4D826600320E1E7019B2B4490
:10C3A0002F444B4527600193E0D3029B0133029356
:10C3B00000230193C1E7012597E700BF645B0020DC
:10C3C00037B50446C0690D4698B10023032201A980
:10C3D000FFF7E4FD012806D1B4F92030002B0ADA7A
:10C3E000FFF7BBFD022003B030BDE5255554A26820
:10C3F0000BE00120F7E7019A012D4FEA431102EB10
:10C400004313F4D0022DF0D0E268DA612278032AD7
:10C4100004D100221A775A779A77DA77626A5A83B8
:10C42000110C9982DFE770B5304D0446042694F86C
:10C430003430052B2CD8DFE803F003243139424B8C
:10C44000D5F8082204F1300102320120FFF738FF4D
:10C45000012807D00238C0B2012819D8052384F872
:10C460003430E4E7D5F81012E268236BC5F81432D3
:10C4700002EB4122E260E26A236102B963620123B6
:10C48000EDE7206B4FF0FF31FFF77EFE012801D072
:10C49000002070BDE36A3BB10223E0E7D4E90B0161
:10C4A000FFF772FE0128F3D10323D8E700212046CD
:10C4B000FFF786FF0128EBD184F83460B7E794F8E2
:10C4C0002830082B02D1002384F828300120E0E72F
:10C4D00094F82830082B04BF002384F82830034B3D
:10C4E000012283F8B5210220D3E700BF645B00205E
:10C4F0002DE9F743DFF81891044694F83850032DDE
:10C5000000F28180DFE805F002106E772046FFF729
:10C510008AFF012802D184F83800EEE7022873D19F
:10C52000032384F83830E8E723786668022B18BFC5
:10C53000D9F81832204618BF1E40FFF725FCC6F375
:10C540004F260746361A0023022201A93846FFF774
:10C5500025FD06EB070801281FFA88F8054653D188
:10C5600001984FF40072002152F000FDE369FBB125
:10C570006368EBB9019B4FF020322E211A605A609C
:10C580001970C3F80720606A5883050C10201A62DE
:10C590005A6283F8201083F82110D872C3F827203C
:10C5A000E26B9D8222FA00F199865A8783F82B006C
:10C5B000D9F810124B1E984508D24FF4007120464E
:10C5C000FFF770FC4AF0A6FE0137BCE7C1EBC15192
:10C5D000490201F500712046FFF764FC4AF09AFE1B
:10C5E00002239EE7002384F82830236C0BB12046F9
:10C5F0009847012508E0236C002084F8280003B147
:10C600009847022500E00025284603B0BDE8F083E6
:10C61000645B0020F8B52E4E044600F13007A6F505
:10C62000B87594F83830032B50D8DFE803F0022EA9
:10C63000363FD5F894212261FFF704FCE3681844E3
:10C64000E060FFF77DFB1044C5F89401FFF7FAFBAB
:10C65000D5F87831181AC5F87801FFF7F3FBD5F84B
:10C660007C31181AC5F87C012263FFF769FBE36A85
:10C670001044606323B96262012384F83830D0E744
:10C68000FFF75EFB101A2063F6E700213046FFF744
:10C6900097FE01280ED10223EFE7626B3946012095
:10C6A000FFF794FD012805D10323E6E7002120468A
:10C6B000FFF786FE431EDBB2012B06D894F8283024
:10C6C000062B04BF002384F82830F8BD0220F1E7D0
:10C6D000D45C00202DE9F743454D0029044614BFE2
:10C6E0000226002605F5805794F83C30042B71D8BB
:10C6F000DFE803F0290336406300DFF8FC802B7885
:10C70000206B032B53D1404594BF4FF000094FF0ED
:10C710000109B9F1000F48D101A948F04FF90128EA
:10C7200063D1206B4946FFF72FFD01285DD1019BA6
:10C730002363D7F81422013B934294BFC7F8143205
:10C74000C7F81422DBE731462046FFF739FE0128FF
:10C75000034648D1626B02B1022384F83C30C3E740
:10C76000626B04F130010020FFF730FD01283AD15F
:10C770000323F2E7E26AD7F89431C7F894219B1AB1
:10C78000D7F810221B485343D7F8782102EB4322F5
:10C79000C7F87821D7F87C21002102EB4323C7F8A2
:10C7A0007C31FFF70DFE01281DD10423D5E71FFAC8
:10C7B00080F94FF6F7739945A6E794F82830042BD3
:10C7C00004BF002384F82830A36B0BB120469847A0
:10C7D00001200AE0022094F82830042B05D1002320
:10C7E00084F8283001E00228F5D003B0BDE8F083DA
:10C7F000644B0020D45C0020F7FFFF0F70B5037876
:10C80000023B012B04461CD8237E990623D42046E4
:10C81000FFF7EAFA237E1A070AD51F4D95F898010B
:10C82000C31F584258414AF075FD002385F89831DE
:10C830000023237084F82830E36A5BB1BDE87040C0
:10C840001847037E13F0060FDED00121FFF7B8FD75
:10C850000128D9D070BDE269104900231801405861
:10C86000824211D10E4903F5817201EB0213DB798B
:10C87000C3F34503012B0BD8002301EB0212D1793E
:10C8800063F34601D171C2E70133082BE6D1BEE75D
:10C89000013B03F03F03F0E7645B00207C5B00207A
:10C8A000644B002010B580B1027872B190F8282056
:10C8B0006AB9D0E9012494422CBF846082600322CB
:10C8C00080F82820C162FFF799FF012010BD0020E9
:10C8D000FCE7B1F904300F2B2DE9F34104460D4676
:10C8E00016460BD14FF40071FFF7DCFA18B900209F
:10C8F00002B0BDE8F0814FF6FF73AB802046FFF732
:10C9000043FA94F91B20531C074611D01E4B41F2E9
:10C91000180103EB021041588F4230D0FFF71DFB86
:10C920002046FFF79BFA0028E1D00023336024E083
:10C930002046FFF793FA80460028F1D1381E18BF31
:10C9400001204AF0E7FC4346112201A93846FFF7CF
:10C9500025FB0128E4D10198FFF70EFBE076019A50
:10C96000002ADDD0AB8801331BB2AB8002EB43134E
:10C9700033602046FFF708FA28600120B8E7183333
:10C9800003EB42230193EAE7644B00202DE9F043D7
:10C99000994E87B00446A6F5DC7594F83030042B28
:10C9A00011D8DFE813F0130005005E00DE0025015A
:10C9B00004F11C0901AA49463046FFF78AFF012805
:10C9C0000ED002282FD007B0BDE8F083304648F0E3
:10C9D0004DFA4FF6FF732384012384F83030DCE7EF
:10C9E000019F0FB13B7863B93046FFF7FDF9237E15
:10C9F000DF061BD548F03AFA4FF6FF732384022373
:10CA0000EBE797F80B8018F0080FD3D10B2204F155
:10CA10003101384652F044FA0028CBD1637E88EACF
:10CA20000303D90604D53046FFF7DEF90423D4E723
:10CA3000BA8A7B8B43EA02436362D5F81022FB6912
:10CA4000A3605202B3FBF2F102FB113109B11344AE
:10CA50005B1AE36084F819803046FFF7C5F90323B9
:10CA6000BBE795F8E031002BADD104F11C08092794
:10CA700001AA41463046FFF72CFF012850D101980A
:10CA800088B30378E52B01D0002BF1D1FFF774FABE
:10CA90005A4901EB0010FBF73DFD01F5D070FFF79F
:10CAA000A3F920220021019852F060FA019BD4F8EA
:10CAB00031201A60D4F835205A60B4F839201A8130
:10CAC00094F83B209A72019B627EDA7203A801F00F
:10CAD00030FF019B38BB6FF07E021A7447225A74F4
:10CAE0009873D87338E095F8B831022B9ED095F83A
:10CAF000E031002B9AD1C5E97D33D5F8CC2185F8FA
:10CB0000F03185F8EC31D5F8143285F8E071C5F8CC
:10CB1000E421C5F8E8313046FFF7EAFC0128A7D048
:10CB2000022883D04FE79DF80E109DF80F2042EAAF
:10CB30004112BDF80C10A1F2BC7142EA41221A82E6
:10CB40009DF810209DF81110D20242EA41129DF882
:10CB5000121042EA5102DA811A8A1A83DA89DA82D9
:10CB60007DE7237E9A0608D5E0690023112202A9F9
:10CB7000FFF714FA01287FF426AF204648F076F933
:10CB80002269237E8AB91B0708D51D4B93F898218B
:10CB9000002A7FF418AF072283F89821002384F835
:10CBA0002830E36A204698470DE703F0F70213F0B8
:10CBB0000403227608D00023E26AA16884F82830B2
:10CBC0002046FFF7B3F9FEE6122AE7D1E26AA26334
:10CBD000626A84F83C300421C4E90B22C4E90233C0
:10CBE00084F8281063636362204648F03FF9EAE660
:10CBF0000020E36A2070D6E71C5D00207C5B0020EB
:10CC0000645B00202DE9F34103780446002B72D0C9
:10CC100090F82830013B082B6DD8DFE803F00509B8
:10CC200047594B5E6C62670002B0BDE8F041ADE66B
:10CC3000324B4568D3F81072D3F818327F021D408A
:10CC4000216B2046FFF70AF905EB01084745064628
:10CC500026D880B1D4E901329A422CBFA260A360E9
:10CC6000002384F82830E36A002B44D0204602B029
:10CC7000BDE8F04118472169207E01AA4AF01EFC58
:10CC8000012838D123696361019B236163683B44B8
:10CC90005B1B6360236BDB1B1D4425633546CFE7BD
:10CCA00063680028D6D119446160D3E702B0BDE8BB
:10CCB000F041A3E50121FFF70DFD01281BD1216CF7
:10CCC0000023204684F8283002B0BDE8F041E9E5B1
:10CCD000002102B0BDE8F041FCE402B0BDE8F04143
:10CCE00098E402B0BDE8F041FFF79DBB02B0BDE89B
:10CCF000F041FFF7FDBB02B0BDE8F081645B0020AE
:10CD00002DE9F0414FF0FF31304A314C0D46002300
:10CD1000107804280ED103F5817004EB0010C0795F
:10CD2000C70707D46E1C52F80A0C01D0884201D202
:10CD30001D4601460133082B02F11002E8D16B1C9D
:10CD400042D0234C234E05F5817704EB07139988D5
:10CD500049B1D6F8283933B104EB051041F2180275
:10CD60009B6880589847D6F828399BB11A4ED3F85B
:10CD70000C801A4A04EB051C41F2180000235CF8F1
:10CD8000000006EB4521C04720B1022810D000204A
:10CD9000BDE8F081124BD3F89C2004EB0714013A54
:10CDA000C3F89C200322A271012283F8A020EEE7A1
:10CDB00006F6E87604EB0714D6F89C30013BC6F87B
:10CDC0009C300123A371E2E70120E1E78A5B0020A8
:10CDD000644B0020002000207C4B00203193000891
:10CDE000645B002008B500214422104852F0BEF8D0
:10CDF0000F4B03F580501B784FF6FF72A0F8D2213D
:10CE0000022B4FF0030218BF134680F8B831D0F858
:10CE10001C32C0F8DC31102380F8D02180F8D131E9
:10CE200000F5DC7048F022F8012008BD1C5D0020F0
:10CE3000644B002070B5124D124BC5F8B43840F267
:10CE40000112002385F81132A0F84421C0F85C31AA
:10CE500005F6B4020D23C0E95422044685F8C01833
:10CE6000C0F8583100F5A2714AF083FC05F5F8725C
:10CE700020461F23BDE8704001214AF013BD00BFCA
:10CE8000F83000205553425310B5074B93F8FD116D
:10CE900004464AF025FD002804DA20460121BDE8B9
:10CEA0001040C7E710BD00BFF8300020F8B50B7880
:10CEB00013F0600506460C4638D0202D74D14A7810
:10CEC000FE2A05D0FF2A1CD04AF054FB02252BE095
:10CED0004D88A5B9CF88012F11D11A060FD5334C33
:10CEE000D4F81C329B699847C0B284F8C40830B1AA
:10CEF0003A4604F6C40130464AF010FC14E03046CD
:10CF0000E2E74A88002AFAD1CD88002DF7D11B0626
:10CF1000F5D4264A012182F8115282F810121F23FB
:10CF200002F5F8724AF0BEFC2846F8BD4B780A2B91
:10CF300024D00B2B25D0012BF6D194F9043089880D
:10CF4000C068002B22DA01F07F014AF00BFF217943
:10CF5000164F30464AF01CFB02232179402230460E
:10CF60004AF03FFB97F81032022B12D18121304654
:10CF70004AF0CEFA002387F81032D5E70C49012297
:10CF8000BAE70A4B4A8883F8C528CDE74AF0D4FEB1
:10CF9000DDE794F90420002AC6DA012BC4D0012170
:10CFA0003046FFF747FFBFE70025BDE7F830002018
:10CFB000BD39002008B5084B93F81132022B07D079
:10CFC000033B012B02D80021FFF734FF002008BDEE
:10CFD000FFF75AFFFAE700BFF830002070B52F4C7A
:10CFE00094F8116205461EB1012E54D0002070BD88
:10CFF000D4F8F431C4F8B838D4F8F831C4F8BC38EF
:10D00000B0F8B4331F2B0DD1D4F8F021244B9A4241
:10D0100008D194F8FD11012904D894F8FE31013BA0
:10D020000F2B0AD92021052047F016FC022384F893
:10D0300010322846FBF7D8FED8E74AF051FC00280A
:10D04000F7DB94F81132013B022BCFD9B4F8C618A4
:10D05000E9B1D4F8F83184F8C068994228BF19467C
:10D06000D4F8BC385B1AC4F8BC38042384F81132F5
:10D0700040F20113A5F844310A4BC5E95616C5E93B
:10D08000543305F5A27128464AF073FBAEE72846F3
:10D09000FFF7D0FEAAE7FFF7F7FEA7E7F83000207A
:10D0A00055534243643B0020F0B59C0827010E46CF
:10D0B000154600EB0414A04206F1100605F1100518
:10D0C00008D103F0030339443A4404EB83039C4240
:10D0D00023D1F0BD84469CED006A16ED045AD0EDD4
:10D0E000016A56ED037A90ED027A56ED025A26EE69
:10D0F000056A66EEA76AD0ED037A05ED046A16EDBF
:10D10000016A45ED036A27EE257A67EE867A1030CC
:10D1100005ED027A45ED017ACDE7F4EC017AB1EC48
:10D12000017A67EE877AE2EC017AD0E74A090123B7
:10D1300001F01F0103FA01F150F82230194214BF27
:10D140000120002070474A09012301F01F0103FA62
:10D1500001F150F822300B4340F8223070474A0961
:10D16000012301F01F0103FA01F150F8223023EAF4
:10D17000010340F82230704738B50378012B04468C
:10D180003CD10369254D23B9426812B9D5F89421E1
:10D190004260D4ED067A77EE807A01332361C4EDE4
:10D1A000067A04F11C0000F0B3FE6268D5F89431F1
:10D1B0009B1AA268934221D9E36A012BC3BF03F1F2
:10D1C000FF3307EE903A94ED0A7A9FED150AC4BF3B
:10D1D000F8EEE77A87EE270A01F0BCF8D4ED057A7D
:10D1E000F4EEC07AF1EE10FA0CD5237B3BB9D5F8FA
:10D1F0009421626000222361A261E36238BD0323AF
:10D200002370FBE7D4ED047AD4ED066AF8EE677A72
:10D21000022386EEA77A84ED067AF1E7F830002043
:10D22000000000002DE9F0412DED028B04460F4671
:10D2300000F11C05064600F1640855ED017AB7ECD3
:10D24000010A77EE807A284645ED017A183500F01C
:10D250005FFE4545F1D123692D4D6268013323619D
:10D26000D5F894319B1AA26893422DD99FED298A53
:10D2700004F13007F36A012BC1BF03F1FF3307EE5E
:10D28000903A96ED0A7AF8EEE77AD4BFB0EE480A03
:10D2900087EE270A01F05EF8BE42D4ED057A17D07A
:10D2A000F4EEC07AF1EE10FA06F11806E2D5237B0F
:10D2B0005BBBD5F89421626000222361A261E36226
:10D2C00022636364A264E365BDEC028BBDE8F08178
:10D2D000F4EEC07AF1EE10FAE9D4D4ED047AD4ED8C
:10D2E000066AF8EE677A022386EEA77AD4ED0C6A16
:10D2F00084ED067A86EEA77AD4ED126A84ED0C7A74
:10D3000086EEA77A84ED127A00E003232370DBE730
:10D31000F83000200000000080EA0120082341F2DC
:10D32000210210F4004F4FEA400018BF5040013B6B
:10D3300080B2F6D1704738B50C468D18AC4200D19A
:10D3400038BD14F8011BFFF7E7FFF7E74840082353
:10D3500010F0800F4FEA400018BF80F0D500013B6D
:10D36000C0B2F5D1704710B50A440C46944200D1C2
:10D3700010BD14F8011BFFF7E9FFF7E738B50A46BF
:10D38000056804460020AA4203D36B1C2360287062
:10D3900038BD12F8011BFFF7D9FFF4E7DFED0A7A79
:10D3A000C0ED020A20EE270AB7EE007AC7EE007A37
:10D3B00000230360C0ED017A70EEA77A80EEA77AB1
:10D3C00080ED037A704700BFDB0FC94090ED017A12
:10D3D000D0ED007AC0ED020A30EE877AC0EE876A9F
:10D3E00030EE677AE6EE877AB0EE670AC0ED007A33
:10D3F000704700BFD0ED017AD0ED036A30EE670AC6
:10D40000E6EE807A90ED000AC0ED017AB0EE677A20
:10D41000D0ED027A37EE677AE6EE877AC0ED027ACF
:10D4200077EEC07AA6EEA70A80ED000A704790ED6D
:10D43000056AD0ED017AD0ED006AD0ED025A90ED88
:10D44000045A66EE277AB0EE407AE6EE807AD0EDA6
:10D45000066A80ED057AE5EEA67AD0ED076AD0ED92
:10D46000035A80ED066AE5EEE67AD0ED085AC0ED83
:10D47000086AE5EE657AB0EE670AC0ED077A704794
:10D48000D0ED006AD0ED057AE6EE807AB0EE407A13
:10D49000B0EE670AD0ED037AD0ED016A67EEC07A8C
:10D4A000E6EE877AD0ED066A76EEA77AD0ED026ACC
:10D4B000C0ED057AD0ED047A67EEC07AE6EE877AA1
:10D4C000C0ED067A704703685A1C026019707047F5
:10D4D00003685A1C02601970704700797047007920
:10D4E000C0F34010704700794009704790F83C2025
:10D4F000034602F0FF0012B1002283F83C2070477F
:10D5000010B5064A0423002152F8044B844208BF98
:10D5100042F8041C013BF7D110BD00BF885D00201C
:10D5200001207047012070472DE9F8435E4F1546F2
:10D530003C69BA8AB7F81A90C2EB24135200C2EBC6
:10D54000E402B7F91640624303FB03F4B7F918305D
:10D5500024135C43A41304EBE224B7F91E30FC62ED
:10D560000E46A4F5FA3181FB01CE4FEAE37803FBC6
:10D570000EF20CFB0822A3FB0C389044B7F91C20D8
:10D5800082FB01021B0A120343EA086342EA1052BB
:10D5900000031B1842EB282202F50042A3FB0938C6
:10D5A00009FB02884FEAE8734FEA680253EA680809
:10D5B0004FF000006CD0B7F924904FEAE97809FBEE
:10D5C0000EFE0CFB08EEA9FB0C9CE644B7F922C04A
:10D5D0008CFB01814FEA414C4FEA484111EB0909AC
:10D5E000396B4CEAD83C4EEB0C0CC1F5801E0EF0AA
:10D5F0000048B7F9201048EA5E0810EB09004FEA2E
:10D60000CE7EBEEB00000CEBC10168EB010C40F6D6
:10D610003548A0FB080108FB0C114BF0D3FDB7F90E
:10D620002A304FEA613E4FEA503C4CEAC14C03FBC2
:10D630000EF24FEAE3790CFB0929A3FB0C324A44B2
:10D6400003FB0EFE0CFB02EEA3FB0C3CB7F92820FB
:10D65000E6445B0E43EACE1313EB000C804602FB5C
:10D6600001F34FEAE27941EB6E6EA2FB082809FB59
:10D6700000314144D00C40EA41301CEB0000B7F9C6
:10D6800026304EEBE141000A40EA016000EB031056
:10D690000EB1000A306025B104EB840480342412FA
:10D6A0002C600120BDE8F883885D002001207047D0
:10D6B000044B00225A639A63DA6300221A64012041
:10D6C000704700BF885D00200F4B1A680F4B196C24
:10D6D000521AFA2A16D8D3ED0D7AFDEEE77A17EE34
:10D6E000902AD3ED0E7AC286FDEEE77A17EE902AE5
:10D6F000D3ED0F7A0287FDEEE77A17EE903A438773
:10D7000001207047002070478C320020885D002087
:10D7100090F85F3230B53BB990F85D1290F85E3208
:10D720000124DAB2914200D830BDB0F8665204FA52
:10D7300003F22A43A0F866220133F2E7437913F09B
:10D7400001031FBFD0E90732C0689B1A00F1FF3008
:10D7500014BF184018467047437913F002031FBFE7
:10D76000D0E9093200699B1A00F1FF3014BF9843D9
:10D770001846704710B5437913F0010301460DD0E8
:10D78000FFF7DCFF60B10A6A4B69C8689B5C013235
:10D79000B2FBF0F400FB1422DBB20A62184610BDA3
:10D7A0000346FBE743799B070AD5436A8269D15454
:10D7B000436A02690133B3FBF2F102FB11334362A6
:10D7C000704741717047D0E90920131A58425841F7
:10D7D0007047024B5B6C5B68184700BF885D002098
:10D7E000024B5B6C08309B68184700BF885D0020C7
:10D7F00001207047012070470120704701207047C9
:10D800000120704731B10C4BD3ED127AF8EEE77A74
:10D81000C1ED007A72B1084BDFED086ADB6CA3F54D
:10D82000D543333B07EE903AF8EEE77A87EEA67AD7
:10D8300082ED007A704700BF885D00200000C8427A
:10D8400001207047012070477047044B03EB8000B4
:10D85000036D0BB19B681960704700BF885D0020A5
:10D8600008B50246FFF7F1FFBDE80840104621F079
:10D870000FB8054B03EBC00040F2FF739942A8BFFD
:10D8800019468180704700BF083A00200C4A13787F
:10D890007BB10C4B93F8901059B193F8911059B19A
:10D8A00050680021FA2883F89110A8BF4FF0FF308C
:10D8B00070476FF0010070476FF00200704700BFC3
